:020000040800F2
:100000000004002001022000E1152000E11520007D
:10001000E1152000E1152000E1152000E115200088
:10002000E1152000E1152000E1152000C11220009B
:10003000E1152000E1152000E115200061122000EB
:10004000E1152000E1152000E1152000E115200058
:10005000E1152000E1152000E1152000E115200048
:10006000E1152000E1152000E1152000E115200038
:10007000E1152000E1152000E1152000E115200028
:10008000E1152000E1152000E1152000E115200018
:10009000E1152000E1152000E1152000E115200008
:1000A000E1152000E1152000E1152000E1152000F8
:1000B000E1152000E1152000E1152000E1152000E8
:1000C000E1152000E1152000E1152000E1152000D8
:1000D000E1152000E1152000E1152000E1152000C8
:1000E000E1152000E1152000E1152000E1152000B8
:1000F000E1152000E1152000E1152000E1152000A8
:10010000E1152000E115200021122000E11520005A
:10011000E1152000E1152000E1152000E115200087
:10012000E1152000E1152000E1152000E115200077
:10013000E1152000E1152000E1152000E115200067
:10014000E1152000E1152000E1152000E115200057
:10015000E1152000E1152000E1152000E115200047
:10016000E1152000E1152000E1152000E115200037
:10017000E1152000E1152000E1152000E115200027
:10018000E1152000E115200041142000E1152000B8
:10019000E1152000E1152000E1152000E115200007
:1001A000E1152000E1152000E1152000E1152000F7
:1001B000E1152000E1152000E1152000E1152000E7
:1001C000E1152000E1152000E1152000E1152000D7
:1001D000E1152000E1152000E1152000E1152000C7
:1001E000E1152000E1152000E1152000E1152000B7
:1001F000E1152000E1152000E1152000E1152000A7
:1002000072B6264880F3098825484EF60851CEF28A
:1002100000010860022080F31488BFF36F8F02F0A2
:1002200027FA02F025F94FF055301E491E4A914237
:100230003CBF41F8040BFAE71C49184A91423CBF05
:1002400041F8040BFAE71A491A4A1B4B9A423EBF7F
:1002500051F8040B42F8040BF8E700201749184A3C
:1002600091423CBF41F8040BFAE702F0C1F902F0F9
:10027000F7F9144C144DAC4203DA54F8041B8847C8
:10028000F9E701F095FD114C114DAC4203DA54F839
:10029000041B8847F9E702F0DBB9000000080020E2
:1002A00000002000000000200004002000040020C6
:1002B000DC270008000002200000022000080020C7
:1002C0000C0A002000022000000220000002200092
:1002D000000220002DE9F04FC1F80CD0D0F80CD06E
:1002E000BDE8F08F002383F311882846A047002043
:1002F00002F036F902F05CF900DFFEE781F0004120
:1003000002E000BF83F0004330B54FEA41044FEAFA
:10031000430594EA050F08BF90EA020F1FBF54EA95
:10032000000C55EA020C7FEA645C7FEA655C00F031
:10033000E2804FEA5454D4EB5555B8BF6D420CDD02
:100340002C4480EA020281EA030382EA000083EA85
:10035000010180EA020281EA0303362D88BF30BD25
:1003600011F0004F4FEA01314FF4801C4CEA11317B
:1003700002D0404261EB410113F0004F4FEA0333DA
:100380004CEA133302D0524263EB430394EA050F65
:1003900000F0A780A4F10104D5F1200E0DDB02FAD4
:1003A0000EFC22FA05F2801841F1000103FA0EF268
:1003B000801843FA05F359410EE0A5F120050EF12E
:1003C000200E012A03FA0EFC28BF4CF0020C43FA5F
:1003D00005F3C01851EBE37101F0004507D54FF06C
:1003E000000EDCF1000C7EEB00006EEB0101B1F5BC
:1003F000801F1BD3B1F5001F0CD349085FEA300002
:100400004FEA3C0C04F101044FEA445212F5800F0C
:1004100080F09A80BCF1004F08BF5FEA500C50F1A9
:10042000000041EB045141EA050130BD5FEA4C0C8C
:10043000404141EB010111F4801FA4F10104E9D115
:1004400091F0000F04BF01460020B1FA81F308BF0C
:100450002033A3F10B03B3F120020CDA0C3208DDD8
:1004600002F1140CC2F10C0201FA0CF021FA02F1B3
:100470000CE002F11402D8BFC2F1200C01FA02F123
:1004800020FA0CFCDCBF41EA0C019040E41AA2BF48
:1004900001EB0451294330BD6FEA04041F3C1CDA10
:1004A0000C340EDC04F11404C4F1200220FA04F030
:1004B00001FA02F340EA030021FA04F345EA0301DA
:1004C00030BDC4F10C04C4F1200220FA02F001FA9C
:1004D00004F340EA0300294630BD21FA04F029461E
:1004E00030BD94F0000F83F4801306BF81F48011B7
:1004F0000134013D4EE77FEA645C18BF7FEA655C2A
:1005000029D094EA050F08BF90EA020F05D054EAFB
:10051000000C04BF1946104630BD91EA030F1EBF00
:100520000021002030BD5FEA545C05D14000494104
:1005300028BF41F0004130BD14F580043CBF01F5F7
:10054000801130BD01F0004545F0FE4141F47001DD
:100550004FF0000030BD7FEA645C1ABF19461046B8
:100560007FEA655C1CBF0B46024650EA013406BFB9
:1005700052EA033591EA030F41F4002130BD00BF78
:1005800090F0000F04BF0021704730B54FF4806435
:1005900004F132044FF000054FF0000150E700BFB6
:1005A00090F0000F04BF0021704730B54FF4806415
:1005B00004F1320410F0004548BF40424FF0000102
:1005C0003EE700BF42004FEAE2014FEA31014FEA45
:1005D00002701FBF12F07F4393F07F4F81F0605194
:1005E000704792F0000F14BF93F07F4F704730B503
:1005F0004FF4607401F0004521F0004120E700BF96
:1006000050EA010208BF704730B54FF000050AE01C
:1006100050EA010208BF704730B511F0004502D51D
:10062000404261EB41014FF4806404F132045FEA1F
:10063000915C3FF4DCAE4FF003025FEADC0C18BFC4
:1006400003325FEADC0C18BF033202EBDC02C2F1BA
:10065000200300FA03FC20FA02F001FA03FE40EA4C
:100660000E0021FA02F11444C1E600BF70B54FF04C
:10067000FF0C4CF4E06C1CEA11541DBF1CEA13552E
:1006800094EA0C0F95EA0C0F00F0DEF82C4481EA96
:10069000030621EA4C5123EA4C5350EA013518BFB6
:1006A00052EA033541F4801143F4801338D0A0FBA3
:1006B00002CE4FF00005E1FB02E506F00042E0FB50
:1006C00003E54FF00006E1FB03569CF0000F18BF56
:1006D0004EF0010EA4F1FF04B6F5007F64F54074FE
:1006E00004D25FEA4E0E6D4146EB060642EAC62191
:1006F00041EA55514FEAC52040EA5E504FEACE2EFE
:10070000B4F1FD0C88BFBCF5E06F1ED8BEF1004F00
:1007100008BF5FEA500E50F1000041EB045170BD7C
:1007200006F0004646EA010140EA020081EA0301C0
:10073000B4EB5C04C2BFD4EB0C0541EA045170BDBC
:1007400041F480114FF0000E013C00F3AB8014F136
:10075000360FDEBF002001F0004170BDC4F100047F
:10076000203C35DA0C341BDC04F11404C4F1200500
:1007700000FA05F320FA04F001FA05F240EA02005B
:1007800001F0004221F0004110EBD37021FA04F691
:1007900042EB06015EEA430E08BF20EAD37070BD4B
:1007A000C4F10C04C4F1200500FA04F320FA05F0AA
:1007B00001FA04F240EA020001F0004110EBD370AC
:1007C00041F100015EEA430E08BF20EAD37070BD1C
:1007D000C4F1200500FA05F24EEA020E20FA04F3F5
:1007E00001FA05F243EA020321FA04F001F00041A4
:1007F00021FA04F220EA020000EBD3705EEA430E15
:1008000008BF20EAD37070BD94F0000F0FD101F043
:100810000046400041EB010111F4801F08BF013C7C
:10082000F7D041EA060195F0000F18BF704703F0BA
:100830000046520043EB030313F4801F08BF013D41
:10084000F7D043EA0603704794EA0C0F0CEA1355FD
:1008500018BF95EA0C0F0CD050EA410618BF52EAB7
:100860004306D1D181EA030101F000414FF00000BD
:1008700070BD50EA410606BF1046194652EA4306CB
:1008800019D094EA0C0F02D150EA013613D195EA3F
:100890000C0F05D152EA03361CBF104619460AD187
:1008A00081EA030101F0004141F0FE4141F4700191
:1008B0004FF0000070BD41F0FE4141F4780170BD81
:1008C00070B54FF0FF0C4CF4E06C1CEA11541DBFE6
:1008D0001CEA135594EA0C0F95EA0C0F00F0A7F8E8
:1008E000A4EB050481EA030E52EA03354FEA013115
:1008F00000F088804FEA03334FF0805545EA131328
:1009000043EA12634FEA022245EA111545EA1065EF
:100910004FEA00260EF000419D4208BF964244F186
:10092000FD0404F5407402D25B084FEA3202B61AA5
:1009300065EB03055B084FEA32024FF480104FF479
:10094000002CB6EB020E75EB030E22BFB61A7546ED
:1009500040EA0C005B084FEA3202B6EB020E75EB80
:10096000030E22BFB61A754640EA5C005B084FEAE8
:100970003202B6EB020E75EB030E22BFB61A7546B5
:1009800040EA9C005B084FEA3202B6EB020E75EBC0
:10099000030E22BFB61A754640EADC0055EA060E81
:1009A00018D04FEA051545EA16754FEA06164FEAC4
:1009B000C30343EA52734FEAC2025FEA1C1CC0D170
:1009C00011F4801F0BD141EA00014FF000004FF0FD
:1009D000004CB6E711F4801F04BF01430020B4F1BE
:1009E000FD0C88BFBCF5E06F3FF6AFAEB5EB030C76
:1009F00004BFB6EB020C5FEA500C50F1000041EB73
:100A0000045170BD0EF0004E4EEA113114EB5C043F
:100A1000C2BFD4EB0C0541EA045170BD41F4801112
:100A20004FF0000E013C90E645EA060E8DE60CEA1A
:100A3000135594EA0C0F08BF95EA0C0F3FF43BAF37
:100A400094EA0C0F0AD150EA01347FF434AF95EAEE
:100A50000C0F7FF425AF104619462CE795EA0C0FD2
:100A600006D152EA03353FF4FDAE1046194622E79F
:100A700050EA410618BF52EA43067FF4C5AE50EA79
:100A800041047FF40DAF52EA43057FF4EBAE12E769
:100A90004FEA410212F5001215D211D56FF47873A6
:100AA000B3EB625212D94FEAC12343F0004343EA49
:100AB000505311F0004F23FA02F018BF4042704724
:100AC0004FF00000704750EA013005D111F00040AE
:100AD00008BF6FF0004070474FF00000704700BF44
:100AE0004FEA4102B2F1E04324BFB3F5001CDCF150
:100AF000FE5C0DD901F0004C4FEAC0024CEA507088
:100B0000B2F1004F40EB830008BF20F001007047B6
:100B100011F0804F21D113F13872BCBF01F00040B9
:100B2000704741F480114FEA5252C2F11802C2F1EB
:100B3000200C10FA0CF320FA02F018BF40F001006C
:100B40004FEAC1234FEAD32303FA0CFC40EA0C001E
:100B500023FA02F34FEA4303CCE77FEA625307D15B
:100B600050EA01331EBF4FF0FE4040F44000704792
:100B700001F0004040F0FE4040F40000704700BF2C
:100B800080F0004002E000BF81F0004142001FBF42
:100B90005FEA410392EA030F7FEA226C7FEA236C4B
:100BA0006AD04FEA1262D2EB1363C1BFD218414040
:100BB00048404140B8BF5B42192B88BF704710F0D6
:100BC000004F40F4000020F07F4018BF404211F079
:100BD000004F41F4000121F07F4118BF494292EAE1
:100BE000030F3FD0A2F1010241FA03FC10EB0C000D
:100BF000C3F1200301FA03F100F0004302D549429A
:100C000060EB4000B0F5000F13D3B0F1807F06D346
:100C100040084FEA310102F10102FE2A51D2B1F13E
:100C2000004F40EBC25008BF20F0010040EA030033
:100C30007047490040EB000010F4000FA2F10102E0
:100C4000EDD1B0FA80FCACF1080CB2EB0C0200FA6A
:100C50000CF0AABF00EBC25052421843BCBFD040B8
:100C60001843704792F0000F81F4000106BF80F432
:100C700000000132013BB5E74FEA41037FEA226CF5
:100C800018BF7FEA236C21D092EA030F04D092F0C0
:100C9000000F08BF0846704790EA010F1CBF0020F4
:100CA000704712F07F4F04D1400028BF40F0004051
:100CB000704712F100723CBF00F50000704700F071
:100CC000004343F0FE4040F4000070477FEA226298
:100CD00016BF08467FEA23630146420206BF5FEA69
:100CE000412390EA010F40F4800070474FF0000369
:100CF00004E000BF10F0004348BF40425FEA000C30
:100D000008BF704743F0964301464FF000001CE0D7
:100D100050EA010208BF70474FF000030AE000BF2D
:100D200050EA010208BF704711F0004302D540426B
:100D300061EB41015FEA010C02BF844601460020DD
:100D400043F0B64308BFA3F18053A3F50003BCFAF8
:100D50008CF2083AA3EBC25310DB01FA02FC6344A5
:100D600000FA02FCC2F12002BCF1004F20FA02F2AC
:100D700043EB020008BF20F00100704702F120029F
:100D800001FA02FCC2F1200250EA4C0021FA02F200
:100D900043EB020008BF20EADC7070474FF0FF0C05
:100DA0001CEAD0521EBF1CEAD15392EA0C0F93EA00
:100DB0000C0F6FD01A4480EA010C400218BF5FEAA2
:100DC00041211ED04FF0006343EA501043EA511115
:100DD000A0FB01310CF00040B1F5000F3EBF49000F
:100DE00041EAD3715B0040EA010062F17F02FD2A13
:100DF0001DD8B3F1004F40EBC25008BF20F00100F6
:100E0000704790F0000F0CF0004C08BF49024CEA0C
:100E1000502040EA51207F3AC2BFD2F1FF0340EA9E
:100E2000C250704740F400004FF00003013A5DDC0F
:100E300012F1190FDCBF00F000407047C2F1000250
:100E4000410021FA02F1C2F1200200FA02FC5FEA3D
:100E5000310040F1000053EA4C0308BF20EADC7087
:100E6000704792F0000F00F0004C02BF400010F4F9
:100E7000000F013AF9D040EA0C0093F0000F01F0A6
:100E8000004C02BF490011F4000F013BF9D041EAC8
:100E90000C018FE70CEAD15392EA0C0F18BF93EACA
:100EA0000C0F0AD030F0004C18BF31F0004CD8D1F4
:100EB00080EA010000F00040704790F0000F17BF7B
:100EC00090F0004F084691F0000F91F0004F14D0C1
:100ED00092EA0C0F01D142020FD193EA0C0F03D119
:100EE0004B0218BF084608D180EA010000F000401C
:100EF00040F0FE4040F40000704740F0FE4040F4F7
:100F0000400070474FF0FF0C1CEAD0521EBF1CEA95
:100F1000D15392EA0C0F93EA0C0F69D0A2EB0302B3
:100F200080EA010C49024FEA402037D04FF080534D
:100F300043EA111143EA10130CF000408B4238BF12
:100F40005B0042F17D024FF4000C8B4224BF5B1A20
:100F500040EA0C00B3EB510F24BFA3EB510340EA6E
:100F60005C00B3EB910F24BFA3EB910340EA9C001C
:100F7000B3EBD10F24BFA3EBD10340EADC001B018C
:100F800018BF5FEA1C1CE0D1FD2A3FF650AF8B4230
:100F900040EBC25008BF20F0010070470CF0004C3D
:100FA0004CEA50207F32C2BFD2F1FF0340EAC25068
:100FB000704740F400004FF00003013A37E792F029
:100FC000000F00F0004C02BF400010F4000F013A87
:100FD000F9D040EA0C0093F0000F01F0004C02BF82
:100FE000490011F4000F013BF9D041EA0C0195E7EB
:100FF0000CEAD15392EA0C0F08D142027FF47DAF84
:1010000093EA0C0F7FF470AF084676E793EA0C0F73
:1010100004D14B023FF44CAF08466EE730F0004C71
:1010200018BF31F0004CCAD130F000427FF45CAF01
:1010300031F000437FF43CAF5FE700BF4FEA40026E
:10104000B2F1FE4F0FD34FF09E03B3EB12620DD9F6
:101050004FEA002343F0004310F0004F23FA02F060
:1010600018BF404270474FF00000704712F1610F07
:1010700001D1420205D110F0004008BF6FF00040DE
:1010800070474FF0000070470000000000000000B3
:10109000014B5B6883607047001000E000000000B7
:1010A0002DE9F047002102254FF008084FF00F0C02
:1010B0001F4C4FF0010E03270FE0266A26EA0202BA
:1010C00042EA09022262226813402B43236040084F
:1010D00001F101014FEA850527D04B0001F007021D
:1010E00010F0010F0EFA01F607FA03F34FEA82023D
:1010F0006FEA0303EBD0D4F804A0072908FA02F939
:101100000CFA02F22AEA06066660A66806EA0306F8
:10111000A660E66806EA0306E660CED9666A26EAB5
:10112000020242EA09026262CDE7BDE8F08700BF31
:10113000001002400000000000000000000000005D
:10114000024A136843F08003136070470078004040
:1011500070B4202383F311880D4E4A1E4D420D4C6E
:10116000336802442468013B2A4058182840231A57
:101170009A4206D802440023326083F3118870BC7F
:1011800070470020002383F3118870BC704700BFB4
:10119000E8090020E0090020000000000000000035
:1011A000034A42F2107311680B441360704700BF8A
:1011B000E409002000000000000000000000000022
:1011C000202383F31188114B5B6813F4006302D171
:1011D00083F31188704780B400AFEFF309834FF0B9
:1011E0008071A3F1200243F8041C82F30988084AA5
:1011F000116892698968926891428CBF054A064AD3
:1012000043F8082CBD4680BC704700BF00ED00E0ED
:1012100070080020F5022000F80220000000000005
:1012200008B50B4B00211878DA680428116107D142
:101230000220187011601161D16821F0FF01D160A6
:101240005B6803485B689847BDE80840FFF7B8BF94
:101250000008002000000000000000000000000066
:10126000F8B5202787F31188124DEA8C2E460132FB
:1012700056F81C3F92B2B342EA8413D01C89013C59
:10128000A4B21C8174B91A68D968DC605660EA613E
:1012900084F311881869884787F31188EB691A89E4
:1012A000002AF0D0002383F31188BDE8F840FFF74F
:1012B00087BF00BF70080020000000000000000091
:1012C00080B400AFEFF30983203383F30988002350
:1012D00083F31188BD4680BC704700BF000000004A
:1012E0000E4B82685B680E499B1A426830B40C6FE3
:1012F000C1681B1B01318360C160D0E90445E4185B
:1013000045F100059342026888BF43609342C0E9FB
:10131000044538BF036030BC704700BF001000E0D8
:101320007008002000000000000000000000000025
:10133000202383F3118890F82030072B0ED8DFE8A4
:1013400003F0280D0D2408040D08426A9368013348
:10135000936090E80C001A60026853600022816874
:101360000E4B80F8202010B44FF0FF3444621B680D
:101370009A688A42FBD25A6800210360426010607A
:10138000586081F3118810BC7047436A00221A60CC
:10139000E4E7002383F31188704700BF7008002042
:1013A00010B400220446084B816880F820201B6896
:1013B0009A688A42FBD25A682046236062601460B1
:1013C0005C6010BC704700BF700800200000000087
:1013D000F8B5174F57F8044FBC4221D005460026F8
:1013E00002E02468BC421BD0E3682B43E36015B1E4
:1013F00022691342F5D06068A368416B90F8202001
:101400000B430A2A43630CD00B2AEAD1426A32EA20
:101410000303E6D14662FFF7C3FF2468BC42E3D171
:10142000F8BD426A1342DCD04662FFF7B9FFF4E729
:101430001008002000000000000000000000000074
:101440002DE9F0415F4C666D3768F5692A07356212
:1014500052D1EB0545D4A80617D4390601D52A0682
:1014600065D46B060DD5202383F31188626CA36CC1
:101470009A4200F0868027F040070023376083F30C
:101480001188BDE8F041FFF79BBE202383F311884C
:10149000726A94F85C10636901EA0208002B78D044
:1014A000236A626A934278D06269591C01322162D0
:1014B000626183F80080226AE3699A425ED2E3683F
:1014C000414A934209D019684FF0000E1846E16076
:1014D0004A60C3F824E0FFF763FF002383F3118819
:1014E000BBE7202383F311884FF40070FFF770FFF0
:1014F000002383F31188AEE715F0080F0CBF00201E
:101500008020EB074FF0200348BF40F02000A907E0
:1015100048BF40F040006A0748BF40F4807083F342
:101520001188FFF755FF002383F3118891E72023EB
:1015300083F31188A36C626C9A4236D0A26B581C5C
:10154000216C0132A0648842A26393F8008001D329
:10155000E36BA364236B1D4A934209D019684FF0D3
:10156000000E184621634A60C3F824E0FFF718FF15
:10157000C6F82880002383F3118872E7A3692362E9
:101580009DE7A36B002B3FF476AF1020FFF720FF01
:1015900071E70420FFF71CFF82E76269002A83D00D
:1015A0004FF48060FFF714FF97E7A26B002AC5D0C5
:1015B0000820FFF70DFF27F0C00343F0400333601E
:1015C000D8E700BF100800201C08002040080020B9
:1015D000FEE700BF00000000000000000000000067
:1015E000FEE700BF00000000000000000000000057
:1015F0000EB42DE9F04F86B000234FF05409DFF808
:1016000080A210AD9D4C00930295CDF80490009AF5
:101610002646DAF80030013201999B68984800921A
:10162000984723780193019B741C002B00F02081C4
:10163000252BECD171782D2900F04B814FF0000C57
:10164000302900F041814FF02008621C002405E0A1
:101650002B78043512F8011B03EB4004A1F1300391
:10166000164604EB8400DBB2092BF3D92A29EFD00C
:101670002E294FF000024AD001F0DF034C2B55D148
:10168000337801931BB11946013633780193A1F1E8
:101690004403342B00F20C81DFE813F08F010A01C0
:1016A0000A010A010A018F010A010A010A010A015D
:1016B0000A014D010A010A010A010A010A01520147
:1016C0000A010A0187010A010A010A010A010A0145
:1016D0000A010A010A010A010A01F6008F010A0142
:1016E0000A010A010A018F010A010A010A010A011D
:1016F0000A014D010A010A010A0189000A01520189
:101700000A010A0187012B78043503EB400216F821
:10171000011B02EB8200A1F13003DBB2092BF4D9EB
:101720002A29F0D001F0DF034C2BA9D0A1F141030D
:10173000A1F14400DBB2342800F2B880DFE810F0F9
:101740000A01B600B600B600B6000A01B600B6003F
:10175000B600B600B6000301B600B600B600B6008B
:10176000B600CE00B600B6003801B600B600B6002E
:10177000B600B600B600B600B600B600B600A200CD
:101780000A01B600B600B600B6000A01B600B600FF
:10179000B600B600B6000301B600B600B6003500CC
:1017A000B600CE00B600B6003801337801932F683A
:1017B0000435002F00F011813B78002A40F00A81A7
:1017C000002B00F01C8147F6FE733A4601E0013B16
:1017D00003D412F8011F0029F9D1D21B4FF02008C1
:1017E000A41A02F1FF395BD4BCF1000F68D1C4F137
:1017F000000B002C63D03B782D2B03D1B8F1300FB8
:1018000000F0F080DAF80030414650469B68984777
:101810001BF1010BF6D1009BB9F1000F234400939B
:10182000FFF601AF5C46CB46DAF800300BF1FF3B28
:1018300017F8011B50469B689847BBF1FF3FF3D157
:10184000009B01334B440093002C3FF4ECAE274641
:10185000DAF80030414650469B689847013FF7D17F
:10186000009B2344741C0093019B002B7FF4E0AE8B
:10187000009806B0BDE8F04F03B070470527000898
:1018800010080020337801932B6806AF04354FF021
:10189000000901224FF0200807F80C3DA41AA3D537
:1018A000B9F1000FFFF6BFAE0024BCE73378019317
:1018B00006AF4FF00009012207F80C1DEEE75C4669
:1018C000B9F1000FAFDABFE761784FF030080134AB
:1018D000BBE6B41CB1784FF0010CB1E64FF00A0E34
:1018E000192B34D92F680435337801930DF1170182
:1018F00000E00146481EB7FBFEF20EFB12791746C8
:1019000009F13003392BC8BF09F13703DBB201F805
:10191000013C002AEDD10DF1170203AF121ABE46A9
:10192000104401E011F8013B88420EF8013BF9D167
:1019300002F1FF39B2E74FF0080E2F680435D5E702
:101940004FF00A0EF9E7192B4FF0080ECAD833787A
:101950000193F2E7192B2ED9296804353378002931
:1019600001932EDB03AF3A4602F10B0B5846264B90
:10197000A3FB01E3DB0803EB83099E46A1EB4903CC
:1019800071463033DBB200F8013D0029EFD1ABEBFB
:101990000001114401E010F8013F02F8013B8A42C6
:1019A000F9D1D21B02F1FF3978E74FF0100EC4E7EE
:1019B0004FF0100E94E7337801932968043500291D
:1019C000D0DA4FF02D0349420DF10D0203AF8DF82F
:1019D0000C30C9E79BB1531EF7E60AB947F6FF7210
:1019E0000A4FF8E7009A2D21DAF80030504601320C
:1019F00001379B6809F1FF390092984702E74FF0E1
:101A0000FF394FF02008EFE6CDCCCCCC1C270008E6
:101A1000084B1A68996930B481F8200001251468D0
:101A2000104663601C6082F820509A6130BCFEF75B
:101A300051BC00BF70080020000000000000000042
:101A40004FF6FF739942F0B587B031D01C4C074672
:101A50001C48E369A5691A8905959142049005D946
:101A6000891A1B6889B21A898A42F9D35D6801AA6A
:101A700001934FF6FF76029538462A605A60ADF81A
:101A80000C101A89511A1981A684FFF7C1FF049B13
:101A900053B1019BBDF80C001A89029902441A81C6
:101AA0000B60019B5960A684A369586A07B0F0BD1A
:101AB000034CFFF7ADFFA369586A07B0F0BD00BF44
:101AC000700800203113200000000000000000001A
:101AD00061B10246074B04209B6910B4546883E847
:101AE00014002360536010BCFFF7AABF4FF0FF3013
:101AF000704700BF700800200000000000000000D8
:101B00002DE9F04F994683B004460E461546D0F8AD
:101B10001C80202383F31188264B09F1FF3A00270C
:101B2000DB8C1FFA8AFA19FA83F39BB20193A3683C
:101B300013B3616906F1010BA368481C013B6061A6
:101B4000A36033780B7061692369994201D3E3681C
:101B50006361B8F1000F01D02046C047002383F332
:101B60001188013D07F1010719D0202383F3118863
:101B7000A3685E46002BDCD14FF6FD72924512D869
:101B80000C4AD18C019A511A89B2894505D3204655
:101B9000FFF79EFF0028CAD0002383F31188384640
:101BA00003B0BDE8F08F49462046FFF791FF0028BB
:101BB000BDD0F1E770080020000000000000000028
:101BC0003030FFF79DBF00BF0000000000000000A4
:101BD00030304FF6FF73FFF793BF00BF00000000E7
:101BE000F8B504460F461646202383F3118803E018
:101BF000FFF76EFF002819DBA56831462046002D4F
:101C0000F6D06269A368511C013B6161A360177043
:101C1000626923699A4201D3E3686361E3690BB1A6
:101C200020469847002080F31188F8BD85F311887D
:101C3000F8BD00BF00000000000000000000000030
:101C40003030FFF7CDBF00BF0000000000000000F3
:101C500030304FF6FF72FFF7C3BF00BF0000000037
:101C60002DE9F04F994683B004460E461546D0F84C
:101C70001C80202383F31188264B09F1FF3A0027AB
:101C8000DB8C1FFA8AFA19FA83F39BB20193A368DB
:101C900013B3A16906F1010BA368481C013BA061C5
:101CA000A3600B783370A1692369994201D3E3687B
:101CB000A361B8F1000F01D02046C047002383F391
:101CC0001188013D07F1010719D0202383F3118802
:101CD000A3685E46002BDCD14FF6FD72924512D808
:101CE0000C4AD18C019A511A89B2894505D32046F4
:101CF000FFF7EEFE0028CAD0002383F31188384690
:101D000003B0BDE8F08F49462046FFF7E1FE00280A
:101D1000BDD0F1E7700800200000000000000000C6
:101D20000C30FFF79DBF00BF000000000000000066
:101D30000C304FF6FF73FFF793BF00BF00000000A9
:101D400070B5202304460E4683F3118803E0FFF7A5
:101D5000BFFE002819DBA56831462046002DF6D0CD
:101D6000A169A3684A1C2069013B8242A261A36069
:101D70000D7801D3E368A361E3690BB1204698476E
:101D8000002383F31188284670BD85F3118870BD48
:101D90000C30FFF7D5BF00BF0000000000000000BE
:101DA0000C304FF6FF71FFF7CBBF00BF0000000003
:101DB000BF4D00244FF6FF714FF0FF3205F11C03B9
:101DC0000026A9844FF6FF08EB612B622D606D6041
:101DD0002D616D61AC60EC842C672DE9804889B081
:101DE000002702A80292039404940594CDE90667A3
:101DF000FFF74EF902A8FFF773FAAE4BAE494FF06A
:101E0000800EAE4A05F12C06196003F1100CAC49A6
:101E1000AC4F11600122AC4985F84D400F60AB49D1
:101E20000498CF68286707EA0807A948C5F834E08E
:101E3000C5F868E03843DFF8D4E26F69DFF8D08294
:101E40002C669C61C3F810C0C3F814C005F1540C93
:101E50002F6485F84E206C66ED63C5F844803E61C2
:101E600005F15807C860DEF80C009C6040F08070F7
:101E7000DC606E61AE612026C5F854C04FF0100CD6
:101E8000944BAC6485F84C20CEF80C009248AF65BA
:101E9000EF65C3F8B00F18681043186081F81FC0D1
:101EA00081F8226084F3118862B686F311888B4B27
:101EB00002266969C3F8982003F16C07C3F8CC20A7
:101EC00003F1900083F8B220854ADFF848E2C3F8B6
:101ED0008C20844A83F8B06003F1BC06C3F8A410D8
:101EE00083F8B140C3F8C440C3F89C7003F1B8074D
:101EF000C3F8A8201C67C3F8C840C3F8A050C3F8B3
:101F0000AC30C3F86CE00861AA69C3F8B4409168CA
:101F10006861C3F8B870C3F8BC60C3F8C06000293A
:101F200000F04D82294683F8B04009688A68002A8B
:101F3000FBD1C3F890104C68C3F89440206048600F
:101F400082F31188684B4FF0FF31684C18691961B2
:101F50001A61586959615A61186A60F080501862B4
:101F60001A62586A59625A62216841F4807121608C
:101F7000196F01F44071B1F5807F03D04FF48031C7
:101F800019671A67584B1A6F184642F019021A67F8
:101F9000036F9B07FCD5554E40F2FF7E0023544C47
:101FA00071684FF0FF37DFF870814FF4300921F48A
:101FB0000071DFF868C14F4A71604FF6FF71066B20
:101FC00046EA0E060663066D46EA0E06DFF850E1A5
:101FD00006654BF67E766360A760C4F80C80DFF878
:101FE00044816161C4F82080DFF83C81C4F824801A
:101FF000DFF83881C4F800806FF07048C4F804340A
:10200000C4F8087407F18A4707F1551707F5A85770
:10201000C4F80C74384FC4F8146440F60826C4F8A9
:102020002034C4F82494C4F8007404F50064DFF884
:1020300000916FF440176360C4F808804FF0770890
:10204000C4F80C90DFF8EC906161C4F820906362F2
:10205000DFF8E49026604FF42026C4F80434C4F876
:1020600008744FF05537C4F80C94C4F81414C4F82D
:102070002034C4F824844FF00868C4F800641F4E6C
:10208000C4F80438C4F80868C4F80C781C4EC4F8C6
:102090001418C4F82038C4F82438C4F80038194C8F
:1020A0007360DFF89890B460174CF760716147E097
:1020B00070080020C009002051112000E80900200C
:1020C0000000022000000820E009002000ED00E0F0
:1020D0000003FA05001000E055CEACC5E80800206A
:1020E000E50220003427000800380240007000405C
:1020F000000002401008002001400018F3FFFFCF4D
:1021000000140240FFCF3F0000180240F0ED00E055
:10211000EC260008D115200051550040EC090020A4
:10212000FC090020B00B00B00AAA0A002880AE2AE1
:1021300051505501B000BB005555505555551551DE
:10214000336273623360B24E6360A6600F26C4F8D8
:102150000C90DFF8009361612362C4F824900CF1C5
:102160001009C4F80080DFF8F082C4F80434C4F821
:1021700008641646C4F80C8402F13008C4F814143C
:10218000C4F82034C4F82434C4F8003404F50064DE
:102190006360A360E7606161236293626362D262FD
:1021A0002360C2F818C0C4F80434C2F824C0C4F8CC
:1021B0000834C2F820C04FF0010CC4F80C74C2F807
:1021C0001C9002F10C09C4F8141482F808C0C4F879
:1021D0002034C4F82434C4F80034C4F80438C2F8F5
:1021E0000C90C4F80838C2F810904FF0C009C4F839
:1021F0000C78C4F814181021C4F82038C4F8243816
:10220000C4F80038834C844F46F8044B834C536128
:10221000566007267B60FC604FF4802487F800C07E
:102220000EF1100CC2F8308091637D49C2F83CE099
:10223000C2F83480126581F85293C2F848E0C1F8C0
:102240008841C2F844E0DFF814E28C608024C2F8D0
:1022500040C041F8ECEC41F8E83C202341F8F06C38
:10226000704E7149D6645165704E7149966581F81A
:10227000234083F31188137A012B03D1036C43F0BD
:1022800080430364916D4FF0400C6A480124536D04
:1022900040F22D1EA0FB010102264FF0FF30090C79
:1022A000D960C3F804C09C600024C3F800E0186241
:1022B000167282F85C0084F311884FF48070FEF788
:1022C000EFFE8020FEF7ECFE202383F311883B789D
:1022D000594A012B7A6075D0BB68584A9B09A2FB0A
:1022E00003239B09013B9BB2F968002202200A608C
:1022F0004A6038708B620A61CA6082F31188DFF825
:1023000060A100222023CAF8002083F31188796895
:102310000326FB6842F2107449680120DC623E70BB
:1023200058615A621A6111B1DA680243DA60852194
:102330000022196082F31188414CEB8C013C9BB266
:10234000FBD11846FEF7D2FCFA68DAF80030804676
:10235000566A01461E44FEF721FD4146FEF7D2FDB6
:10236000FEF730F926A3D3E90023FDF7CBFF804623
:10237000701E8946FEF704F923A3D3E90023FEF774
:102380009FFA00222F4BFDF7BFFFFEF781FB494666
:1023900083464046FEF7A4FBFEF750FE334600900E
:1023A0005A4629492948FFF723F9202383F3118846
:1023B00064210820FFF744FB84F31188A1E782F829
:1023C0002010FEE7224A4FF4802615494FF0700E88
:1023D000106C40F21B23DFF88CC040F00800106442
:1023E000106A40F008001062C7F808C0146281F853
:1023F00032E3C1F884614E6076E700BFAFF300803E
:10240000CDCCCCCCCCCC14409A9999999999C93F10
:1024100000F0CC3CBC27000800080020000C004065
:1024200000E100E0411120000078004080F937030E
:1024300000ED00E0C5B3A29124270008632D3E05FE
:10244000005A62020000F03F042700081008002034
:102450000038024000B0B00050555555BF4B030046
:10246000E409002000F36F060000000000000000F7
:1024700030B4334B4FF44040324A334C19461C645D
:1024800010601A6842F001021A600B689B07FCD5C5
:102490008B682B4A23F003038B608B688B609368F7
:1024A00013F00C03FBD11068254900F0F90010600F
:1024B0009360136843F4A02313600B689D03FCD55D
:1024C000224B20484B600B6843F080730B604368DD
:1024D0005C04FCD503681B4A43F4803303605368F3
:1024E000D903FCD51368174943F4003313604B68D4
:1024F0009A03FCD5124A13689B01FCD5144B40F299
:102500000931144D40F2022400209560C2F88C403D
:10251000C2F8900019609368094943F00203936080
:102520008B6803F00C03082BFAD14B6C43F4804307
:102530004B644B6E43F4804330BC4B66704700BF26
:10254000003802400070004000040010086C400990
:10255000003C0240009499300000000000000000A0
:1025600038B52022034682F31188104A946904F199
:102570002805A06A6362854206D00368A362FEF75D
:102580000FFFA06AA842F8D194F8223043B994F81A
:1025900021309B0704D1226963691A612269536162
:1025A0000F20BDE83840FFF733BA00BF70080020A5
:1025B0000E4A0121106830B4036800259469136045
:1025C0005A6080F8201084F82050A168906100E0E3
:1025D0001B689A689142FBD35A6821462360626067
:1025E00014605C6030BCFDF775BE00BF7008002051
:1025F000F0B5124F0026124D07F1800E114C124B10
:1026000012499C4211D904391A4651F8040F42F874
:10261000040B9442F9D8DA43144424F0030404343C
:1026200023449D4203D943F8046B9D42FBD81037E5
:10263000774502D297E83A00E3E7F0BD3C2700086F
:10264000000002200000022000000220DC27000819
:10265000FEE700BF000000000000000000000000D6
:10266000704700BF000000000000000000000000F4
:10267000F0B5BFF34F8FBFF36F8F1B4C0022C4F830
:102680005022636943F400336361BFF34F8FBFF39C
:102690006F8FC4F88420BFF34F8FD4F8803043F697
:1026A000E07EC3F3C906C3F34E33B7075D0105EA05
:1026B0000E003946324641EA0003013A01F1404139
:1026C000C4F86032531CF6D1203D15F1200FEED135
:1026D000BFF34F8F636943F480336361BFF34F8F60
:0C26E000BFF36F8FF0BD00BF00ED00E005
:1026EC006D61696E00160020040244080C10141869
:1026FC001C2021220000000054696D653A282564D5
:10270C00202F20256429202D2025640A0D0000008F
:10271C00286E756C6C290000400D0300A11120007F
:10272C00000000000000000069646C6500000000FF
:10273C00DC2700080000022000000220000002201C
:10274C00DC2700080000022000000220000002200C
:10275C00DC27000800C0072000C0072000C00720AD
:10276C00DC2700080C0A00200C0A00200C0A0020B0
:10277C00DC27000800000000000000000000000042
:10278C00DC270008004002400040024000400240AC
:10279C00DC27000800000000000000000000000022
:1027AC00DC27000800000000000000000000000012
:1027BC00D11B2000311D2000511C2000A11D200028
:1027CC00411C2000911D2000C11B2000211D200058
:0400000500200201D4
:00000001FF
